:040076007F147E0075
:10007A00EF4E600F7D027CC7DCFEDDFCEF1F70F0E7
:03008A001E80EDE8
:01008D002250
:1000030075A0FE20B12312007630B1FD12007605F3
:1000130008E50875F008120054AFF07401A807084A
:100023008002C333D8FCF4F5A020B0D71200763099
:10003300B0FD1200761508E50875F008120054AFFC
:10004300F07401A807088002C333D8FCF4F5A0803C
:01005300B2FA
:0300000002008E6D
:0C008E00787FE4F6D8FD758108020003BD
:10005400C2D530F707B2D563F0FF05F030E70CB234
:10006400D5F4048463F0FF05F080018430D502F4F4
:02007400042264
:00000001FF
